:020000040800F2
:1000000000000220B10F00081110000811100008B4
:100010001110000811100008111000080000000065
:1000200000000000000000000000000011100008A7
:100030001110000800000000111000081110000845
:10004000111000081110000811100008111000080C
:1000500011100008111000081110000811100008FC
:1000600011100008111000081110000811100008EC
:1000700011100008111000081110000811100008DC
:1000800011100008111000081110000811100008CC
:1000900011100008111000081110000811100008BC
:1000A00011100008111000081110000811100008AC
:1000B000111000081110000811100008111000089C
:1000C000111000081110000811100008111000088C
:1000D000111000081110000811100008111000087C
:1000E000111000081110000811100008111000086C
:1000F000111000081110000811100008111000085C
:10010000111000081110000811100008111000084B
:10011000111000081110000811100008111000083B
:10012000111000081110000811100008111000082B
:10013000111000081110000811100008111000081B
:10014000111000081110000811100008111000080B
:1001500011100008111000081110000811100008FB
:1001600011100008111000081110000811100008EB
:1001700011100008111000081110000811100008DB
:08018000111000081110000825
:1001880010B540F26024C2F20004237863B940F24B
:100198000000C0F2000028B145F28C10C0F6010042
:1001A800AFF300800121217010BD00BF08B540F2F7
:1001B8000003C0F200034BB145F28C1040F26421F9
:1001C800C0F60100C2F20001AFF3008040F25C20EB
:1001D800C2F20000016829B140F20003C0F2000336
:1001E80003B1984708BD00BFB051010800000020C6
:1001F8005C020020600200208C02002081F0004197
:1002080002E000BF83F0004330B54FEA41044FEAF3
:10021800430594EA050F08BF90EA020F1FBF54EA8E
:10022800000C55EA020C7FEA645C7FEA655C00F02A
:10023800E2804FEA5454D4EB5555B8BF6D420CDDFB
:100248002C4480EA020281EA030382EA000083EA7E
:10025800010180EA020281EA0303362D88BF30BD1E
:1002680011F0004F4FEA01314FF4801C4CEA113174
:1002780002D0404261EB410113F0004F4FEA0333D3
:100288004CEA133302D0524263EB430394EA050F5E
:1002980000F0A780A4F10104D5F1200E0DDB02FACD
:1002A8000EFC22FA05F2801841F1000103FA0EF261
:1002B800801843FA05F359410EE0A5F120050EF127
:1002C800200E012A03FA0EFC28BF4CF0020C43FA58
:1002D80005F3C01851EBE37101F0004507D54FF065
:1002E800000EDCF1000C7EEB00006EEB0101B1F5B5
:1002F800801F1BD3B1F5001F0CD349085FEA3000FB
:100308004FEA3C0C04F101044FEA445212F5800F05
:1003180080F09A80BCF1004F08BF5FEA500C50F1A2
:10032800000041EB045141EA050130BD5FEA4C0C85
:10033800404141EB010111F4801FA4F10104E9D10E
:1003480091F0000F04BF01460020B1FA81F308BF05
:100358002033A3F10B03B3F120020CDA0C3208DDD1
:1003680002F1140CC2F10C0201FA0CF021FA02F1AC
:100378000CE002F11402D8BFC2F1200C01FA02F11C
:1003880020FA0CFCDCBF41EA0C019040E41AA2BF41
:1003980001EB0451294330BD6FEA04041F3C1CDA09
:1003A8000C340EDC04F11404C4F1200220FA04F029
:1003B80001FA02F340EA030021FA04F345EA0301D3
:1003C80030BDC4F10C04C4F1200220FA02F001FA95
:1003D80004F340EA0300294630BD21FA04F0294617
:1003E80030BD94F0000F83F4801306BF81F48011B0
:1003F8000134013D4EE77FEA645C18BF7FEA655C23
:1004080029D094EA050F08BF90EA020F05D054EAF4
:10041800000C04BF1946104630BD91EA030F1EBFF9
:100428000021002030BD5FEA545C05D140004941FD
:1004380028BF41F0004130BD14F580043CBF01F5F0
:10044800801130BD01F0004545F0FE4141F47001D6
:100458004FF0000030BD7FEA645C1ABF19461046B1
:100468007FEA655C1CBF0B46024650EA013406BFB2
:1004780052EA033591EA030F41F4002130BD00BF71
:1004880090F0000F04BF0021704730B54FF480642E
:1004980004F132044FF000054FF0000150E700BFAF
:1004A80090F0000F04BF0021704730B54FF480640E
:1004B80004F1320410F0004548BF40424FF00001FB
:1004C8003EE700BF42004FEAE2014FEA31014FEA3E
:1004D80002701FBF12F07F4393F07F4F81F060518D
:1004E800704792F0000F14BF93F07F4F704730B5FC
:1004F8004FF4607401F0004521F0004120E700BF8F
:1005080050EA010208BF704730B54FF000050AE015
:1005180050EA010208BF704730B511F0004502D516
:10052800404261EB41014FF4806404F132045FEA18
:10053800915C3FF4DCAE4FF003025FEADC0C18BFBD
:1005480003325FEADC0C18BF033202EBDC02C2F1B3
:10055800200300FA03FC20FA02F001FA03FE40EA45
:100568000E0021FA02F11444C1E600BF4FF0FF3C2F
:1005780006E000BF4FF0010C02E000BF4FF0010C95
:100588004DF804CD4FEA410C7FEA6C5C4FEA430C0E
:1005980018BF7FEA6C5C1BD001B050EA410C0CBF5D
:1005A80052EA430C91EA030F02BF90EA020F0020BF
:1005B800704710F1000F91EA030F58BF994208BF26
:1005C80090422CBFD8176FEAE37040F001007047E3
:1005D8004FEA410C7FEA6C5C02D150EA013C07D13A
:1005E8004FEA430C7FEA6C5CD6D152EA033CD3D085
:1005F8005DF8040B704700BF8446104662468C467F
:100608001946634600E000BF01B5FFF7B7FF0028B1
:1006180048BF10F1000F01BD4DF808EDFFF7F4FFDA
:100628000CBF012000205DF808FB00BF4DF808ED65
:10063800FFF7EAFF34BF012000205DF808FB00BF88
:100648004DF808EDFFF7E0FF94BF012000205DF8AA
:1006580008FB00BF4DF808EDFFF7CEFF94BF01205F
:1006680000205DF808FB00BF4DF808EDFFF7C4FF58
:1006780034BF012000205DF808FB00BF70B545F2CB
:10068800A81645F2A815C0F60106C0F60105761BA6
:10069800B61006D0002455F8043B01349847A6420A
:1006A800F9D145F2AC1645F2A815C0F60106C0F618
:1006B8000105761B14F068FDB61006D0002455F825
:1006C800043B01349847A642F9D170BD80B485B087
:1006D80000AF786040F27C23C2F200031B68002B55
:1006E80008D140F27C23C2F2000340F28C22C2F20D
:1006F80000021A6040F27C23C2F200031B68FB6010
:1007080040F27C23C2F200031A687B68D21840F2D8
:100718007C23C2F200031A60FB68184607F114072D
:10072800BD4680BC704700BF80B483B000AF78601E
:100738004FF0FF33184607F10C07BD4680BC7047E1
:1007480080B483B000AF786039603B684FF40052E2
:100758005A604FF00003184607F10C07BD4680BCED
:10076800704700BF80B483B000AF78604FF00103DA
:10077800184607F10C07BD4680BC704780B485B0A9
:1007880000AFF860B9607A604FF00003184607F1CF
:100798001407BD4680BC704780B485B000AFF860D0
:1007A800B9607A604FF00003184607F11407BD4698
:1007B80080BC704780B485B000AFF860B9607A60DB
:1007C8007B68184607F11407BD4680BC704700BF18
:1007D80080B483B000AF78600B46FB707B68FA7812
:1007E8001A704FF00103184607F10C07BD4680BC8C
:1007F800704700BF80B485B000AF786039604FF0B3
:100808000003FB600FE03B681A787B681A707B680E
:1008180003F101037B603B6803F101033B60FB6864
:1008280003F10103FB603B681B78002BEBD1FB68ED
:10083800184607F11407BD4680BC704780B586B0DE
:1008480000AFF8607A603B600B46FB724FF0000324
:100858007B617B6803F1FF337B603B68092B25D9FB
:100868003A684CF6CD43CCF6CC43A3FB02134FEACF
:10087800D303FA7AF86811467A68FFF7DFFF7861E0
:100888007B69FA68D318FB6013E0FB7AF8681946AD
:10089800FFF79EFFFB6803F10103FB607B6903F12F
:1008A80001037B617B6803F1FF337B607B68002B6E
:1008B800EBDC39684CF6CD43CCF6CC43A3FB0123E3
:1008C8004FEAD30213464FEA83039B184FEA4303C8
:1008D800CA1AD3B203F13003DBB2F8681946FFF73E
:1008E80077FF03467A69D3187B617B69184607F15D
:1008F8001807BD4680BD00BF80B586B000AFF86060
:100908007A603B600B46FB724FF000037B613B68EB
:10091800002B04DA3B68C3F100033B6101E03B684C
:100928003B617B6803F1FF337B603B69092B2AD964
:100938003B68002B12DA3A694CF6CD43CCF6CC432F
:10094800A3FB02134FEAD303C3F10003FA7AF86852
:1009580011467A68FFF7D0FF78610FE03A694CF6E4
:10096800CD43CCF6CC43A3FB02134FEAD303FA7A68
:10097800F86811467A68FFF7BFFF78617B69FA6803
:10098800D318FB602BE03B68002B15DA7B6803F17A
:10099800FF337B6010E0FB7AF8681946FFF718FF11
:1009A800FB6803F10103FB607B6903F101037B61D1
:1009B8007B6803F1FF337B607B68002BEBDC3B68D3
:1009C800002B0CDAF8684FF02D01FFF701FF034602
:1009D8007A69D3187B61FB6803F10103FB6039690D
:1009E8004CF6CD43CCF6CC43A3FB01234FEAD3020C
:1009F80013464FEA83039B184FEA4303CA1AD3B23C
:100A080003F13003DBB2F8681946FFF7E1FE03464D
:100A18007A69D3187B617B69184607F11807BD46C8
:100A280080BD00BF80B588B002AFF8607A600A4622
:100A3800FA72BB724FF000037B617B6803F1FF33EE
:100A48007B603B6A4FEA1313002B24D03B6A4FEAC2
:100A58001311FA7ABB7A0091F86811467A68FFF7A1
:100A6800E1FF03467A69D3187B617B69FA68D3187A
:100A7800FB6013E0FB7AF8681946FFF7A9FEFB68EC
:100A880003F10103FB607B6903F101037B617B6870
:100A980003F1FF337B607B68002BEBDC3B6A03F0E0
:100AA8000F03092B0CD83B6ADBB203F00F03DBB250
:100AB80003F13003DBB2F8681946FFF789FE1BE043
:100AC800BB7A002B0CD03B6ADBB203F00F03DBB21E
:100AD80003F13703DBB2F8681946FFF779FE0BE03C
:100AE8003B6ADBB203F00F03DBB203F15703DBB25F
:100AF800F8681946FFF76CFE7B6903F101037B6117
:100B08007B69184607F11807BD4680BD80B58AB0D5
:100B180002AFF860B9607A603B604FF00003BB61D8
:100B28004FF000037B61FB68002B00F01C81FB6821
:100B38004FF000021A7016E17B681B78252B10D045
:100B48007B681A78FB681A70FB6803F10103FB6085
:100B58007B6803F101037B607B6903F101037B611F
:100B680002E17B6803F101031B78252B10D1FB6898
:100B78004FF025021A70FB6803F10103FB607B68E4
:100B880003F102037B607B6903F101037B61EBE006
:100B98004FF02003FB774FF00003BB777B6803F12E
:100BA80001037B607B681B78302B1BD14FF030032F
:100BB800FB777B6803F101037B6013E0BB7F1A4678
:100BC8004FEA8202D3184FEA4303DAB27B681B78F4
:100BD800D318DBB2A3F13003BB777B6803F10103C1
:100BE8007B6000E000BF7B681B782F2B03D97B68F4
:100BF8001B78392BE2D9BA7F7B69D3181A46BB68B0
:100C08009A4205D9BB68DAB27B69DBB2D31ABB77E3
:100C18007B681B78A3F15803202B00F2948001A273
:100C280052F823F0010D00084F0D00084F0D000881
:100C38004F0D00084F0D00084F0D00084F0D00081C
:100C48004F0D00084F0D00084F0D00084F0D00080C
:100C5800370D0008B10C00084F0D00084F0D0008B3
:100C68004F0D00084F0D0008B10C00084F0D00088B
:100C78004F0D00084F0D00084F0D00084F0D0008DC
:100C88004F0D00084F0D00084F0D00084F0D0008CC
:100C9800210D00084F0D0008C90C00084F0D000871
:100CA8004F0D0008E10C0008BA7F3B6803F104010E
:100CB80039601B68F97FF868FFF71EFEB86145E0E8
:100CC800BA7F3B6803F1040139601B68F97FF86853
:100CD800FFF7B4FDB86139E0BA7F3B6803F104015E
:100CE80039601968FB7F0091F86819464FF00003D6
:100CF800FFF798FEB86129E0BA7F3B6803F1040169
:100D080039601968FB7F0091F86819464FF00103B4
:100D1800FFF788FEB86119E03B6803F104023A6006
:100D28001B68F8681946FFF765FDB8610EE03B6877
:100D380003F104023A601B68DBB2F8681946FFF752
:100D480047FDB86102E04FF0FF332CE07B6803F108
:100D580001037B60BB69FA68D318FB607A69BB69D9
:100D6800D3187B6100E000BF7B681B78002B04D0A0
:100D78007A69BB689A42FFF4DFAE7A69BB689A4227
:100D880004D2FB684FF000021A700BE0FB6803F115
:100D9800FF33FB60FB684FF000021A707B6903F1B8
:100DA800FF337B617B69184607F12007BD4680BD8C
:100DB8000CB480B584B000AF7860396007F11C03CB
:100DC800BB6078683968BA69BB68FFF79FFEF8604E
:100DD800FB68184607F11007BD46BDE8804002B021
:100DE800704700BF80B584B000AFF860B9607A6022
:100DF800F8684FF06401BA687B68FFF787FE03461E
:100E0800184607F11007BD4680BD00BFB0B5A6B0B3
:100E180000AFF860B9607A6042F2C063C0F60103BF
:100E280007F110041D460FCD0FC40FCD0FC42B685A
:100E3800236007F134031846B9687A68FFF7D2FFD0
:100E48000346632B0CDD40F20403C2F200031B6867
:100E5800DB6807F110021046194600F07DF8FEE73E
:100E680007F134031846F96800F076F80346184687
:100E780007F19807BD46B0BD80B582B000AF786075
:100E8800396040F20403C2F200031B689B681846ED
:100E980079683A68FFF7BAFF0346184607F108076A
:100EA800BD4680BD0EB480B585B000AF786007F14F
:100EB8002003BB607868F969BA68FFF7A7FFF86094
:100EC800FB68184607F11407BD46BDE8804003B02B
:100ED800704700BF0FB480B582B000AF07F11403AC
:100EE8003B6038693968FFF7C7FF78607B68184648
:100EF80007F10807BD46BDE8804004B0704700BF51
:100F08000EB480B585B000AF786007F12003BB60F0
:100F18007868F969BA68FFF765FFF860FB681846F2
:100F280007F11407BD46BDE8804003B0704700BF15
:100F380080B582B000AF786040F20403C2F20003CB
:100F48001B689B687868194600F006F8034618463F
:100F580007F10807BD4680BD80B584B000AF786052
:100F680039604FF00003FB6014E07B681B7818467B
:100F7800396800F053FE0346B3F1FF3F02D14FF04A
:100F8800FF330CE0FB6803F10103FB607B6803F1AE
:100F980001037B607B681B78002BE6D1FB68184651
:100FA80007F11007BD4680BD002100F004B8104BC2
:100FB8005B58435004310F480F4B42189A42FFF4D4
:100FC800F6AF0E4A00F003B8002342F8043B0C4B7E
:100FD8009A42FFF4F9AF0B48016841F470010160CF
:100FE80000F02AF8FFF74AFB00F010F870470000FD
:100FF800B0510108000000205C02002060020020BF
:101008008C02002088ED00E0FFF7FEBF80B500AF3E
:1010180001F0C2F901F026FB00F0C0FD42F2E460E5
:10102800C0F60100FFF756FF42F23470C0F6010027
:10103800FFF750FFF8E700BF80B500AF4FF46053EB
:10104800C4F202034FF46052C4F20202126842F082
:1010580001021A604FF46053C4F202034FF0000219
:101068009A604FF46053C4F202034FF46052C4F222
:101078000202126822F0847222F480321A604FF45D
:101088006053C4F2020343F21002C2F200425A60F3
:101098004FF46053C4F202034FF46052C4F20202E8
:1010A800126822F480221A604FF46053C4F20203DB
:1010B8004FF00002DA6000F0C1F84FF46D43CEF251
:1010C80000034FF000629A6080BD00BF80B487B013
:1010D80000AF4FF000033B614FF000037B614FF01E
:1010E8000203FB604FF00003BB604FF002037B601C
:1010F8004FF46053C4F202039B6803F00C033B6196
:101108003B69042B0DD0082B15D0002B69D140F278
:10111800E813C2F200034FF41052C0F2F4021A604E
:1011280069E040F2E813C2F200034FF49052C0F2B3
:101138007A021A605FE04FF46053C4F202035B68FE
:1011480003F480034FEA9353BB604FF46053C4F237
:1011580002035B6803F03F037B60BB68002B14D07D
:101168004FF49053C0F27A037A68B3FBF2F24FF46B
:101178006053C4F20203596847F6C0730B404FEA44
:10118800931303FB02F37B6113E04FF41053C0F297
:10119800F4037A68B3FBF2F24FF46053C4F202032B
:1011A800596847F6C0730B404FEA931303FB02F3E9
:1011B8007B614FF46053C4F202035B6803F440336D
:1011C8004FEA134303F101034FEA4303FB607A69D3
:1011D800FB68B2FBF3F240F2E813C2F200031A60B4
:1011E80009E040F2E813C2F200034FF41052C0F2D3
:1011F800F4021A6000BF4FF46053C4F202039B6804
:1012080003F0F0034FEA131240F2EC13C2F20003AA
:101218009B5CDBB23B6140F2E813C2F200031A6840
:101228003B6922FA03F240F2E813C2F200031A60A3
:1012380007F11C07BD4680BC704700BF80B483B06F
:1012480000AF4FF000037B604FF000033B604FF4AA
:101258006053C4F202034FF46052C4F202021268EF
:1012680042F480321A604FF46053C4F202031B68E0
:1012780003F400333B607B6803F101037B603B6848
:10128800002B03D17B68B3F5A06FECD14FF460530A
:10129800C4F202031B6803F40033002B03D04FF0A1
:1012A80001033B6002E04FF000033B603B68012B09
:1012B80040F082804FF46053C4F202034FF460524E
:1012C800C4F20202126C42F080521A644FF4E043F6
:1012D800C4F200034FF4E042C4F20002126842F480
:1012E80080421A604FF46053C4F202034FF4605214
:1012F800C4F2020292689A604FF46053C4F2020387
:101308004FF46052C4F20202926842F400429A60BA
:101318004FF46053C4F202034FF46052C4F2020265
:10132800926842F4A0529A604FF46053C4F20203E8
:1013380045F20842C0F240725A604FF46053C4F25A
:1013480002034FF46052C4F20202126842F0807243
:101358001A6000BF4FF46053C4F202031B6803F025
:101368000073002BF6D04FF47053C4F2020340F21E
:1013780005621A604FF46053C4F202034FF46052DE
:10138800C4F20202926822F003029A604FF460539A
:10139800C4F202034FF46052C4F20202926842F0AF
:1013A80002029A6000BF4FF46053C4F202039B68C4
:1013B80003F00C03082BF6D14FF46053C4F2020378
:1013C8004FF46052C4F20202926822F400029A605A
:1013D8004FF46053C4F202034FF44052C5F20002C6
:1013E800C3F884204FF46053C4F202034FF46052F0
:1013F800C4F20202126842F080621A6000BF4FF421
:101408006053C4F202031B6803F00063002BF6D09C
:1014180007F10C07BD4680BC704700BF80B584B09B
:1014280000AF0346FB71FA7945F23013C0F60103A9
:1014380053F8223018464FF001010BF01DFBFA79E2
:1014480045F22813C0F6010333F81230BB604FF0A1
:1014580001033B734FF00003BB734FF00103FB73B1
:101468004FF002037B73FA7940F21C23C2F20003A7
:1014780053F82230184607F10803194609F0B6F860
:1014880007F11007BD4680BD80B483B000AF0346A6
:10149800FB71FA7940F21C23C2F2000353F82220B0
:1014A800F97945F22813C0F6010333F81130138394
:1014B80007F10C07BD4680BC704700BF80B483B0FD
:1014C80000AF0346FB71FA7940F21C23C2F2000315
:1014D80053F82220F97945F22813C0F6010333F8AE
:1014E8001130538307F10C07BD4680BC704700BF1D
:1014F80080B483B000AF0346FB71FA7940F21C2335
:10150800C2F2000353F82220F97940F21C23C2F2F8
:10151800000353F821305969F87945F22813C0F6C9
:10152800010333F810304B40536107F10C07BD46F7
:1015380080BC704780B588B000AF02460B46FA7190
:10154800BB71FA7945F24413C0F6010353F822300F
:1015580018464FF001010BF08FFA4FF480404FF01E
:1015680001010BF031FB4FF000033B774FF0000314
:10157800FB77FA7945F24013C0F6010333F81230CD
:10158800BB61FA7940F22C23C2F2000353F82230EF
:10159800184607F11803194609F028F8BB79012BFA
:1015A8003AD1FA7945F24C13C0F601039A5CF979FD
:1015B80045F25013C0F601035B5C104619460EF065
:1015C80093FBFA7945F24813C0F6010333F8123059
:1015D8003B614FF000033B754FF008037B754FF0FC
:1015E8000103BB7507F11003184607F02FFBFA79C2
:1015F80045F25413C0F601039B5C3B734FF00F0395
:101608007B734FF00F03BB734FF00103FB7307F1BC
:101618000C03184602F062FA07F12007BD4680BDA8
:1016280080B582B000AF0346FB71FA7940F22C23F3
:10163800C2F2000353F82220F97945F24013C0F6AC
:10164800010333F811301046194609F0B1F8034682
:10165800184607F10807BD4680BD00BF80B584B0B5
:1016680000AF03463960FB71FA7945F26013C0F6A2
:10167800010353F82220F97945F26813C0F60103F3
:1016880053F82130134318464FF001010BF0F4F9D9
:10169800FA7945F25813C0F6010353F82230184678
:1016A8004FF001010BF090FAFA7940F23823C2F2B8
:1016B800000353F82210FA7945F27813C0F60103B3
:1016C80033F81220F87945F28013C0F6010333F895
:1016D8001030DBB2084611461A4609F015F9FA79B6
:1016E80040F24023C2F2000353F82210FA7945F27F
:1016F8007C13C0F6010333F81220F87945F28413FD
:10170800C0F6010333F81030DBB2084611461A461A
:1017180009F0FAF84FF00003BB734FF00103FB73B5
:101728004FF002033B73FA7945F27013C0F60103D8
:1017380033F81230BB604FF002037B73FA7940F242
:101748003823C2F2000353F82230184607F1080381
:10175800194608F04BFF4FF002033B73FA7945F244
:101768007413C0F6010333F81230BB60FA7940F203
:101778004023C2F2000353F82230184607F1080349
:10178800194608F033FFFA7940F23023C2F2000319
:1017980053F822301846396810F076FAFA7940F290
:1017A8003023C2F2000353F8223018464FF00101EB
:1017B80010F0A6FB07F11007BD4680BD80B582B0CA
:1017C80000AF4FF000000DF0AFFB4FF000000DF040
:1017D800BBFB0DF043FB4FF400604FF000010BF032
:1017E800F3F94FF40060C4F202004FF008014FF023
:1017F800000209F089F84FF40060C4F202004FF0CB
:1018080009014FF0000209F07FF84FF40060C4F2BC
:1018180002004FF00A014FF0000209F075F84FF48A
:101828000060C4F202004FF00B014FF0000209F013
:101838006BF84FF40060C4F202004FF00C014FF057
:10184800000209F061F84FF44060C4F202004FF062
:1018580002014FF0000209F057F84FF470633B6043
:101868004FF000033B714FF00003FB714FF4006031
:10187800C4F202003B46194608F0B8FE4FF00403D4
:101888003B604FF44060C4F202003B46194608F042
:10189800ADFE4FF480533B604FF40060C4F2020089
:1018A8003B46194608F0A2FE07F10807BD4680BD71
:1018B80080B582B000AF4FF00E004FF001010BF081
:1018C800DBF84FF40060C4F202004FF008014FF05B
:1018D8000C0209F019F84FF40060C4F202004FF04E
:1018E80009014FF00C0209F00FF84FF40060C4F240
:1018F80002004FF00A014FF00C0209F005F84FF40E
:101908000060C4F202004FF00B014FF00C0208F027
:10191800FBFF4FF40060C4F202004FF00C014FF0DF
:101928000C0208F0F1FF4FF44060C4F202004FF0DF
:1019380002014FF00C0208F0E7FF4FF470633B60C0
:101948004FF001037B714FF002033B714FF000032E
:10195800BB714FF00103FB714FF40060C4F2020049
:101968003B46194608F042FE4FF004033B604FF433
:101978004060C4F202003B46194608F037FE4FF4B7
:1019880080533B604FF00003FB714FF40060C4F2DA
:1019980002003B46194608F029FE4FF400433B601D
:1019A8004FF000033B714FF00103FB714FF480606F
:1019B800C4F202003B46194608F018FE4FF40060D6
:1019C8004FF001010BF000F94FF480004FF00101D6
:1019D8000BF052F807F10807BD4680BD80B592B0FC
:1019E80000AF7860396046F25840C4F202004FF008
:1019F800FA5107F001F846F25840C4F202004FF0DD
:101A0800000106F0ADFE46F25840C4F2020006F0AE
:101A1800E7FC4FF00063FB604FF43253C4F201035C
:101A28003B617B687B614FF04003BB614FF0000373
:101A3800FB614FF000033B624FF480637B624FF41D
:101A48008053BB624FF48043FB624FF000033B635B
:101A58004FF440337B634FF00403BB634FF0030341
:101A6800FB634FF400033B644FF400137B6446F2BE
:101A78005840C4F2020007F10C03194606F0D2FDE3
:101A880046F25840C4F202004FF010014FF0010234
:101A980006F0E4FF46F25840C4F202004FF020017D
:101AA80006F094FE46F25840C4F202004FF00101DD
:101AB80006F056FE07F14807BD4680BD80B592B0D6
:101AC80000AF7860396046F25840C4F202004FF027
:101AD800FA5106F091FF46F25840C4F202004FF066
:101AE800000106F03DFE46F25840C4F2020006F03E
:101AF80077FC4FF00063FB604FF43253C4F20103EC
:101B08003B617B687B614FF00003BB614FF00003D2
:101B1800FB614FF000033B624FF480637B624FF43C
:101B28008053BB624FF48043FB624FF000033B637A
:101B38004FF440337B634FF00403BB634FF0030360
:101B4800FB634FF400033B644FF400137B6446F2DD
:101B58005840C4F2020007F10C03194606F062FD72
:101B680046F25840C4F202004FF010014FF0010253
:101B780006F074FF46F25840C4F202004FF020010C
:101B880006F024FE46F25840C4F202004FF001016C
:101B980006F0E6FD07F14807BD4680BD80B584B074
:101BA80000AF4FF4E1333B604FF00003BB804FF0D0
:101BB8000003FB804FF000033B814FF00003BB8123
:101BC8004FF00C037B814FF000003B461946FFF7AE
:101BD80045FD42F23C70C0F60100FFF77BF907F1C2
:101BE8001007BD4680BD00BF80B500AF4FF4A050C0
:101BF800C4F201004FF0200110F0FEFB0346002B59
:101C080002D14FF0FF3306E04FF4A050C4F20100B8
:101C180010F00AFA0346184680BD00BF80B582B0AE
:101C280000AF786039607B68DBB24FF4A050C4F233
:101C38000100194610F0E4F900BF4FF4A050C4F2B7
:101C480001004FF0400110F0D7FB0346002BF4D001
:101C58007B68184607F10807BD4680BD80B582B08D
:101C680000AF00F09FFD4FF004004FF0010107F0B6
:101C780083FF4FF0040007F021FE4CF203733B6032
:101C88004FF000033B714FF00003FB714FF44060CD
:101C9800C4F202003B46194608F0A8FC4FF4406025
:101CA800C4F202004FF000014FF0000208F02CFED1
:101CB8004FF44060C4F202004FF001014FF00002FF
:101CC80008F022FE4FF44060C4F202004FF0080111
:101CD8004FF0000208F018FE4FF44060C4F2020012
:101CE8004FF009014FF0000208F00EFE4FF440607B
:101CF800C4F202004FF00A014FF0000208F004FE9F
:101D08004FF44060C4F202004FF00E014FF00002A1
:101D180008F0FAFD4FF44060C4F202004FF00F01E2
:101D28004FF0000208F0F0FD4FF680733B604FF46F
:101D38008050C4F202003B46194608F057FC4FF4A5
:101D48008050C4F202004FF007014FF0000208F083
:101D5800DBFD4FF48050C4F202004FF008014FF051
:101D6800000208F0D1FD4FF48050C4F202004FF099
:101D780009014FF0000208F0C7FD4FF48050C4F28B
:101D880002004FF00A014FF0000208F0BDFD4FF4C9
:101D98008050C4F202004FF00B014FF0000208F02F
:101DA800B3FD4FF48050C4F202004FF00C014FF025
:101DB800000208F0A9FD4FF48050C4F202004FF071
:101DC8000D014FF0000208F09FFD4FF48050C4F25F
:101DD80002004FF00E014FF0000208F095FD4FF49D
:101DE8008050C4F202004FF00F014FF0000208F0DB
:101DF8008BFD4FF23F033B604FF4A050C4F202004A
:101E08003B46194608F0F2FB4FF4A050C4F202001A
:101E18004FF000014FF0000208F076FD4FF4A0509B
:101E2800C4F202004FF001014FF0000208F06CFD0F
:101E38004FF4A050C4F202004FF002014FF000022C
:101E480008F062FD4FF4A050C4F202004FF0030105
:101E58004FF0000208F058FD4FF4A050C4F2020001
:101E68004FF004014FF0000208F04EFD4FF4A0506F
:101E7800C4F202004FF005014FF0000208F044FDE3
:101E88004FF4A050C4F202004FF00C014FF00002D2
:101E980008F03AFD4FF4A050C4F202004FF00D01D3
:101EA8004FF0000208F030FD4FF4A050C4F20200D9
:101EB8004FF00E014FF0000208F026FD4FF4A0503D
:101EC800C4F202004FF00F014FF0000208F01CFDB1
:101ED8004FF03F033B604FF4C050C4F202003B4652
:101EE800194608F083FB4FF4C050C4F202004FF0CB
:101EF80000014FF0000208F007FD4FF4C050C4F293
:101F080002004FF001014FF0000208F0FDFC4FF411
:101F1800C050C4F202004FF002014FF0000208F076
:101F2800F3FC4FF4C050C4F202004FF003014FF02D
:101F3800000208F0E9FC4FF4C050C4F202004FF070
:101F480004014FF0000208F0DFFC4FF4C050C4F267
:101F580002004FF005014FF0000208F0D5FC4FF4E5
:101F680060533B604FF44060C4F202003B461946A0
:101F780008F03CFB4FF44060C4F202004FF00B0144
:101F88004FF0000208F0C0FC4FF44060C4F20200B9
:101F98004FF00C014FF0000208F0B6FC4FF440601F
:101FA800C4F202004FF00D014FF0000208F0ACFC43
:101FB8004FF030033B604FF44060C4F202003B46F0
:101FC800194608F013FB4FF44060C4F202004FF0CA
:101FD80004014FF0000208F097FC4FF44060C4F28F
:101FE80002004FF005014FF0000208F08DFC4FF49D
:101FF80080633B604FF4C050C4F202003B46194670
:1020080008F0F4FA4FF4C050C4F202004FF00C018B
:102018004FF0000208F078FC4FF003033B604FF4E8
:102028008050C4F202003B46194608F0DFFA4FF42C
:102038008050C4F202004FF000014FF0000208F097
:1020480063FC4FF48050C4F202004FF001014FF0DE
:10205800000208F059FC07F10807BD4680BD00BF23
:1020680080B582B000AF4FF03A004FF001010AF09E
:1020780003FD4CF233733B604FF002033B714FF0AA
:1020880002037B714FF00003BB714FF00003FB713B
:102098004FF44060C4F202003B46194608F0A6FA25
:1020A8004FF44060C4F202004FF000014FF00C0200
:1020B80008F02AFC4FF44060C4F202004FF001011E
:1020C8004FF00C0208F020FC4FF44060C4F202000C
:1020D8004FF004014FF00C0208F016FC4FF440607A
:1020E800C4F202004FF005014FF00C0208F00CFC9E
:1020F8004FF44060C4F202004FF008014FF00C02A8
:1021080008F002FC4FF44060C4F202004FF00901ED
:102118004FF00C0208F0F8FB4FF44060C4F20200E4
:102128004FF00A014FF00C0208F0EEFB4FF440604C
:10213800C4F202004FF00E014FF00C0208F0E4FB6D
:102148004FF44060C4F202004FF00F014FF00C0250
:1021580008F0DAFB4FF680733B604FF48050C4F20E
:1021680002003B46194608F041FA4FF48050C4F289
:1021780002004FF007014FF00C0208F0C5FB4FF4C6
:102188008050C4F202004FF008014FF00C0208F032
:10219800BBFB4FF48050C4F202004FF009014FF02E
:1021A8000C0208F0B1FB4FF48050C4F202004FF06B
:1021B8000A014FF00C0208F0A7FB4FF48050C4F25C
:1021C80002004FF00B014FF00C0208F09DFB4FF49A
:1021D8008050C4F202004FF00C014FF00C0208F0DE
:1021E80093FB4FF48050C4F202004FF00D014FF002
:1021F8000C0208F089FB4FF48050C4F202004FF043
:102208000E014FF00C0208F07FFB4FF48050C4F22F
:1022180002004FF00F014FF00C0208F075FB4FF071
:1022280008033B604FF48050C4F202003B46194655
:1022380008F0DCF94FF48050C4F202004FF00301BB
:102248004FF00C0208F060FB4FF080033B604FF446
:102258004060C4F202003B46194608F0C7F94FF443
:102268004060C4F202004FF00A014FF00C0208F07F
:102278004BFB4FF008033B604FF001033B714FF0FD
:1022880000037B714FF00003BB714FF00003FB713B
:102298004FF44060C4F202003B46194608F0A6F924
:1022A8004FF400533B604FF001033B714FF00103C3
:1022B8007B714FF00003BB714FF00003FB714FF4CB
:1022C8004060C4F202003B46194608F08FF94FF40B
:1022D8004060C4F202004FF4005108F0C1FA07F15F
:1022E8000807BD4680BD00BF80B596B000AF4FF06F
:1022F80001004FF001010AF013FC4FF001033B60AD
:102308004FF000037B604FF00903BB604FF0000300
:10231800FB604FF000033B614FF000037B614FF01F
:102328000003BB614FF00003FB614FF000033B6209
:102338004FF000037B624FF01003BB624FF00003C5
:10234800FB624FF000033B634FF000037B634FF0E9
:102358000003BB634FF00003FB634FF480533B64FF
:102368004FF000037B644FF00003BB644FF00003A1
:10237800FB643B463B653B467B6507F11C031846FF
:1023880007F0CAFA4FF000004FF0010107F0F4FB24
:1023980007F15807BD4680BD80B582B000AFFFF792
:1023A8005FFEFFF7A1FF4FF0050001F069FB4FF456
:1023B8004060C4F202004FF0080108F05FFA4FF0E5
:1023C8000A0001F05DFB4FF44060C4F202004FF0D8
:1023D800080108F045FA4FF010004FF0010100F035
:1023E800E7F84FF01E004FF0B20100F0E1F84FF0AF
:1023F80028004FF0060100F0DBF84FF000004FF026
:10240800010100F0D5F84FF0010043F2EF0100F0B0
:10241800CFF84FF002004FF4C06100F0C9F84FF058
:1024280010004FF0000100F0C3F84FF0050001F074
:1024380027FB4FF0110046F6300100F0B9F84FF0D5
:10244800120040F6991100F0B3F84FF026004FF44F
:10245800605100F0ADF84FF007004FF0330100F085
:10246800A7F84FF00C004FF0050100F0A1F84FF06D
:1024780030004FF0000100F09BF84FF0310040F2BF
:10248800033100F095F84FF0320040F2074100F0B8
:102498008FF84FF0330040F2013100F089F84FF027
:1024A800340040F2013100F083F84FF0350040F27B
:1024B800034100F07DF84FF0360040F2077100F05C
:1024C80077F84FF037004FF4806100F071F84FF063
:1024D8003A004FF4206100F06BF84FF03B004FF4E6
:1024E800805100F065F84FF00D004FF00A0100F040
:1024F8005FF84FF00E004FF4385100F059F84FF0E4
:1025080044004FF46F4100F053F84FF045004FF08E
:10251800000100F04DF84FF0460040F23F1100F086
:1025280047F84FF04E004FF0000100F041F84FF02F
:102538004F004FF0000100F03BF84FF022004FF041
:10254800000100F035F84FF000037B6007E04FF022
:10255800000000F06BF87B6803F101037B607A6888
:1025680042F6FF33C0F201039A42F0D940F2FC1060
:10257800C2F2000000F022F907F10807BD4680BD4D
:1025880080B582B000AF02460B46FA80BB80FB885C
:102598004FF04E00194600F00BF8BB884FF04F0083
:1025A800194600F005F807F10807BD4680BD00BFD1
:1025B80080B483B000AF02460B46FA71BB804FF07F
:1025C800C041FB799BB21A460B461A804FF00003B4
:1025D800C6F21003BA881A8007F10C07BD4680BC02
:1025E800704700BF80B483B000AF0346FB714FF063
:1025F800C041FB799BB21A460B461A804FF0000384
:10260800C6F210031B889BB2184607F10C07BD469B
:1026180080BC704780B400AF4FF0C0414FF0220338
:102628001A460B461A80BD4680BC704780B483B0FA
:1026380000AF0346FB804FF00003C6F21003FA8890
:102648001A8007F10C07BD4680BC704780B400AF04
:102658004FF00003C6F210031B889BB21846BD4614
:1026680080BC704780B582B000AF4FF000004FF0DB
:102678000001FFF785FFFFF7CDFF4FF000037B60F8
:102688000AE04FF00003C6F210034FF478421A80B4
:102698007B6803F101037B607A6846F2FF339A4254
:1026A800EFD90AE04FF00003C6F210034FF4FC62C2
:1026B8001A807B6803F101037B607A684CF2FF7330
:1026C8009A42EFD90AE04FF00003C6F210034FF028
:1026D8001F021A807B6803F101037B607A6842F667
:1026E800FF33C0F201039A42EDD907F10807BD464E
:1026F80080BD00BF80B483B000AF02460B46FA80AD
:10270800BB80FB889AB240F28423C2F200031A808D
:10271800BB889AB240F24823C2F200031A8007F13C
:102728000C07BD4680BC704780B483B000AF7860AA
:10273800396040F28423C2F200031B889AB27B6896
:102748001A8040F24823C2F200031B889AB23B6801
:102758001A8007F10C07BD4680BC704780B483B06F
:1027680000AF0346FB80FB889AB240F28423C2F292
:1027780000031A8007F10C07BD4680BC704700BFF4
:1027880080B483B000AF0346FB80FB889AB240F266
:102798004823C2F200031A8007F10C07BD4680BC2B
:1027A800704700BF80B400AFBD4680BC704700BF13
:1027B80080B400AFBD4680BC704700BF80B483B012
:1027C80000AF786040F28023C2F200037A681A6092
:1027D80007F10C07BD4680BC704700BF80B400AF4E
:1027E80040F28023C2F200031B681846BD4680BC35
:1027F800704700BF80B584B000AF0346FB804FF040
:102808000003FB81FA88FB89104619464FF0200225
:1028180000F006F940F28023C2F200031B689A8890
:10282800FB89D318FB81FA8940F23F139A42E9D910
:1028380007F11007BD4680BD80B584B000AF0346E0
:10284800FB804FF00003FB604FF000004FF00001E9
:10285800FFF796FEFFF7DEFE4FF00003FB6009E08E
:102868004FF00003C6F21003FA881A80FB6803F1E0
:102878000103FB60FA6842F6FF33C0F201039A4293
:10288800EED907F11007BD4680BD00BF80B582B004
:1028980000AF02460B46FA80BB80B7F90630002B22
:1028A80018DBB7F9062040F23F139A4212DCB7F959
:1028B8000430002B0EDBB7F90430EF2B0ADCFA8862
:1028C800BB88104619464FF001024FF0000300F094
:1028D80053F900E000BF07F10807BD4680BD00BFFF
:1028E80080B586B000AF0B463A600246FA80BB80DE
:1028F8004FF000037B614FF000033B614FF0000392
:10290800FB81FB88FB81BA88FB8910461946FFF7D3
:1029180037FE4FF000037B6174E0FFF77BFE4FF05A
:1029280000033B6156E07B694FEA43033A68D318DA
:102938001B881A4640F28023C2F200031B6899885C
:102948004AF6AB23CAF6AA23A3FB01034FEAD30333
:102958009BB24FEAC3034FF0800101FA03F13B69D0
:1029680041FA03F31340002B07D140F28023C2F24F
:1029780000031B689B880C2B15D97B694FEA43031E
:102988003A68D3181B881A463B6942FA03F303F0E6
:102998000103002B11D140F28023C2F200031B680F
:1029A8009B880C2B09D940F24823C2F200031B88EC
:1029B8009BB21846FFF73AFE08E040F28423C2F2C1
:1029C80000031B889BB21846FFF730FE3B6903F1F2
:1029D80001033B6140F28023C2F200031B689B881D
:1029E8001A463B699A429ED8FB8903F10103FB8191
:1029F800BA88FB8910461946FFF7C2FD7B6903F1C7
:102A080001037B6140F28023C2F200031B68DB886C
:102A18001A467B699A4280D807F11807BD4680BDDF
:102A280080B582B000AF13460246FA800A46BA80E3
:102A3800FB70FB78A3F12003FB7040F28023C2F205
:102A480000031B681A68F97840F28023C2F2000379
:102A58001B68DB8803FB01F34FEA4303D318F988AB
:102A6800BA88084611461A46FFF73AFF07F10807E1
:102A7800BD4680BD80B584B000AF03463960FB8099
:102A88004FF00003FB811AE03B681B78F988FA894C
:102A9800084611461A46FFF7C3FF40F28023C2F2E8
:102AA80000031B689A88FB89D318FB81FA8940F2D6
:102AB8003F139A4208D83B6803F101033B603B6827
:102AC8001B78002BE0D100E000BF07F11007BD46DE
:102AD80080BD00BF80B584B000AFF880B9807A802F
:102AE8003B804FF00003FB60FB884FF04500194620
:102AF800FFF75EFDFA887B88D21840F23F139A42AE
:102B080006DD4FF0460040F23F11FFF751FD08E0A7
:102B1800FA887B88D3189BB24FF046001946FFF716
:102B280047FDBA883B88D318EF2B03DD4FF46F437A
:102B3800FB6005E0BA883B88D3184FEA0323FB60A3
:102B4800FB88FA681343FB60FB689BB24FF04400B4
:102B58001946FFF72DFDFA88BB8810461946FFF77E
:102B68000FFD07F11007BD4680BD00BF80B400AF60
:102B7800BD4680BC704700BF80B584B000AFF88008
:102B8800B9807A807B704FF00003FB60FA88BB88BD
:102B980010461946FFF7F4FC7B78002B17D1FFF796
:102BA80039FD4FF00003FB600CE040F28423C2F2D1
:102BB80000031B889BB21846FFF738FDFB6803F13A
:102BC8000103FB607A88FB689A42EED820E04FF058
:102BD8000003FB6018E0FFF71DFD40F28423C2F2FA
:102BE80000031B889BB21846FFF720FDBB8803F142
:102BF8000103BB80FA88BB8810461946FFF7C0FC62
:102C0800FB6803F10103FB607A88FB689A42E2D80B
:102C180007F11007BD4680BD80B582B000AFF880CF
:102C2800B980FA703B80F988BA883B880846114613
:102C38001A464FF00103FFF79FFFFB789AB2FB8813
:102C4800D3189BB203F1FF3399B2BA883B88084680
:102C580011461A464FF00103FFF78EFFFB789BB22F
:102C6800F988BA88084611461A464FF00003FFF75C
:102C780083FFBA883B88D3189AB2FB789BB2F9884D
:102C8800084611461A464FF00003FFF775FF07F193
:102C98000807BD4680BD00BF80B586B000AF1346AB
:102CA8000246FA800A46BA807B807B884FEA430353
:102CB800C3F103037B614FF000033B617B88FB603A
:102CC800E5E03B699AB2FB88D3189AB2FB6899B2DF
:102CD800BB88CB189BB210461946FFF751FCFFF78B
:102CE80099FC40F28423C2F200031B889BB2184669
:102CF800FFF79CFC3B699AB2FB88D3189AB2FB6831
:102D08009BB2B988CB1A9BB210461946FFF738FC1C
:102D1800FFF780FC40F28423C2F200031B889BB2B9
:102D28001846FFF783FC3B699BB2FA88D31A9AB21C
:102D3800FB6899B2BB88CB189BB210461946FFF7BF
:102D48001FFCFFF767FC40F28423C2F200031B88D4
:102D58009BB21846FFF76AFC3B699BB2FA88D31A04
:102D68009AB2FB689BB2B988CB1A9BB21046194637
:102D7800FFF706FCFFF74EFC40F28423C2F2000383
:102D88001B889BB21846FFF751FCFB689AB2FB8878
:102D9800D3189AB23B6999B2BB88CB189BB210463C
:102DA8001946FFF7EDFBFFF735FC40F28423C2F22A
:102DB80000031B889BB21846FFF738FCFB689AB2E1
:102DC800FB88D3189AB23B699BB2B988CB1A9BB2DD
:102DD80010461946FFF7D4FBFFF71CFC40F284238A
:102DE800C2F200031B889BB21846FFF71FFCFB6862
:102DF8009BB2FA88D31A9AB23B6999B2BB88CB18AE
:102E08009BB210461946FFF7BBFBFFF703FC40F2E5
:102E18008423C2F200031B889BB21846FFF706FC06
:102E2800FB689BB2FA88D31A9AB23B699BB2B988FD
:102E3800CB1A9BB210461946FFF7A2FBFFF7EAFB35
:102E480040F28423C2F200031B889BB21846FFF7A6
:102E5800EDFB7B69002B08DA3B694FEA83027B694B
:102E6800D31803F106037B610DE03A69FB68D31AB6
:102E78004FEA83027B69D31803F10A037B61FB687D
:102E880003F1FF33FB603B6903F101033B613A69DE
:102E9800FB689A427FF615AF07F11807BD4680BD5B
:102EA80080B584B000AF78604FF00003FB604FF04E
:102EB8000003BB604FF0000040F23F11FFF760FBDA
:102EC800FFF7A8FB4FF00003FB602FE04FF0000373
:102ED800BB6024E0FB684FEA83037A68D3181A685A
:102EE800BB684FF0010101FA03F31340002B09D12D
:102EF80040F24823C2F200031B889BB21846FFF732
:102F080095FB08E040F28423C2F200031B889BB2C1
:102F18001846FFF78BFBBB6803F10103BB60BB6876
:102F28001F2BD7D9FB6803F10103FB60FA6840F651
:102F38005F139A42CAD907F11007BD4680BD00BF8A
:102F480080B483B000AF786007F10C07BD4680BC41
:102F5800704700BF80B582B000AFF880B9807A8032
:102F68003B8040F28423C2F200031B889BB21846C0
:102F7800FFF7F4FBF988BA887B88084611461A4699
:102F88004FF00003FFF7F8FDBA883B88D3189AB2D0
:102F9800F9887B88084611461A464FF00003FFF768
:102FA800EBFDF988BA883B88084611461A464FF067
:102FB8000103FFF7E1FDFA887B88D3189BB203F180
:102FC800FF3399B2BA883B88084611461A464FF033
:102FD8000103FFF7D1FD3B8803F1FF333B80BB883A
:102FE80003F10103BB8040F24823C2F200031B88AF
:102FF8009BB21846FFF7B2FB0DE0BA88BB8803F115
:103008000103BB80F9887B88084611461A464FF0B1
:103018000003FFF7B1FD3B88002B0CBF0023012301
:10302800DBB23A8802F1FF323A80002BE5D140F258
:103038008423C2F200031B889BB21846FFF78EFB5D
:1030480007F10807BD4680BD80B586B000AF1346BE
:103058000246FA800A46BA807B807B884FEA43039F
:10306800C3F103037B614FF000033B617B88FB6086
:1030780040F24823C2F200031B889BB21846FFF7B0
:103088006DFB7BE0FB68002B2BD03B699BB2FA8879
:10309800D31A99B2FB689AB2BB88D3189AB2FB6864
:1030A8009BB24FEA43039BB2084611461A464FF0BB
:1030B8000003FFF761FD3B699AB2FB88D31899B208
:1030C800FB689AB2BB88D3189AB2FB689BB24FEAE6
:1030D80043039BB2084611461A464FF00003FFF718
:1030E8004BFD3B69002B2BD0FB689BB2FA88D31AA7
:1030F80099B23B699AB2BB88D3189AB23B699BB222
:103108004FEA43039BB2084611461A464FF00003A4
:10311800FFF732FDFB689AB2FB88D31899B23B6976
:103128009AB2BB88D3189AB23B699BB24FEA430361
:103138009BB2084611461A464FF00003FFF71CFDE4
:103148007B69002B08DA3B694FEA83027B69D31855
:1031580003F106037B610DE03A69FB68D31A4FEA75
:1031680083027B69D31803F10A037B61FB6803F1CF
:10317800FF33FB603B6903F101033B613A69FB687C
:103188009A427FF67FAF40F28423C2F200031B8885
:103198009BB21846FFF7E2FAF988BA887B88084696
:1031A80011461A46FFF778FD07F11807BD4680BD9E
:1031B80080B58AB000AFF880B9807A803B804FF044
:1031C80000033B824FF00003FB814FF00003FB84B8
:1031D8004FF00003BB844FF000037B844FF00003E3
:1031E8003B844FF00003FB834FF00003BB834FF099
:1031F80000037B834FF000033B834FF00003FB8207
:103208004FF00003BB824FF000037B827A88FB8873
:10321800D31A002BB8BF5B423B823A88BB88D31ACB
:10322800002BB8BF5B42FB81FB88FB84BB88BB8457
:103238007A88FB889A4206D34FF001037B844FF0CB
:1032480001033B8405E04FF6FF737B844FF6FF7361
:103258003B843A88BB889A4206D34FF00103FB832C
:103268004FF00103BB8305E04FF6FF73FB834FF676
:10327800FF73BB83B7F91020B7F90E309A4214DBFD
:103288004FF000037B844FF00003BB833B8A7B83B2
:10329800B7F910304FEAD372D3184FEA63033B8370
:1032A800FB89FB823B8ABB8213E04FF000033B841F
:1032B8004FF00003FB83FB897B83B7F90E304FEA9D
:1032C800D372D3184FEA63033B833B8AFB82FB89A3
:1032D800BB824FF000037B822FE0B7F92620B7F9B5
:1032E800243010461946FFF7D1FA3A8BFB8AD318D7
:1032F8009BB23B83B7F91820B7F91A309A420EDB14
:103308003A8B7B8BD31A9BB23B83FA8C7B8CD3187A
:103318009BB2FB84BA8CFB8BD3189BB2BB84FA8C10
:103328003B8CD3189BB2FB84BA8CBB8BD3189BB253
:10333800BB847B8A03F101037B82B7F91220B7F9BA
:1033480014309A42C9DD07F12807BD4680BD00BF89
:1033580080B584B000AF78600B467B804FF00003E7
:10336800FB814FF00003BB817B88012B14D81AE046
:103378007B681B88FB817B685B88BB817B6803F16A
:1033880004037B60F889B9897B681B889AB27B68DB
:103398005B889BB2FFF70CFF7B8803F1FF337B80D0
:1033A8007B88002BE4D107F11007BD4680BD00BF24
:1033B80090B585B000AF786013460A467A803B80A6
:1033C8004FF00003FB814FF00003BB817B68BB60BB
:1033D8007B88012B3DD97B681B88FB817B685B88D8
:1033E800BB8121E07B6803F104037B60F889B9891C
:1033F8007B681B889AB2FB89D3189AB27B685B8872
:103408009CB2BB89E3189BB2FFF7D2FE7B681B888E
:103418009AB2FB89D3189BB2FB817B685B889AB20E
:10342800BB89D3189BB2BB817B8803F1FF337B80B8
:103438007B88002BD6D13B88002B0BD0BB681B8820
:1034480098B2BB685B8899B2FA89BB89FFF7B0FE6E
:1034580000E000BF07F11407BD4690BD90B583B0EA
:1034680000AF78600B467B807B8878681946FFF749
:103478006FFF7B681B8898B27B685B8899B27B88F2
:1034880003F1FF334FEA83037A68D3181B889AB293
:103498007B8803F1FF334FEA83037C68E3185B887A
:1034A8009BB2FFF785FE07F10C07BD4690BD00BF34
:1034B80080B582B000AF78600B467B807B887868E7
:1034C80019464FF00002FFF773FF07F10807BD46E2
:1034D80080BD00BF80B582B000AF78600B467B80AE
:1034E8007B88786819464FF00102FFF761FF07F102
:1034F8000807BD4680BD00BFF0B5EDB000AF07F1CD
:10350800040318600B461A4607F102031A804FF0AD
:103518000003A7F8AE314FF00003A7F89E314FF033
:103528000003A7F8AC314FF00003A7F8AA314FF019
:103538000003A7F8A8314FF00003A7F89C314FF01B
:103548000003A7F8A6314FF00003A7F8A4314FF005
:103558000003A7F8A2314FF00003A7F8A03107F144
:1035680004031B681B88A7F8A431B7F8A431A7F88F
:10357800A63107F104031B685B88A7F8A031B7F8E8
:10358800A031A7F8A2314FF00103A7F8AA3143E010
:10359800B7F8AA314FEA830307F104021268D31877
:1035A8005B88A7F89E31B7F89E21B7F8A6319A42F2
:1035B80003D2B7F89E31A7F8A631B7F89E21B7F81D
:1035C800A4319A4203D9B7F89E31A7F8A431B7F8C5
:1035D800AA314FEA830307F104021268D3181B8843
:1035E800A7F8AC31B7F8AC21B7F8A2319A4203D2A8
:1035F800B7F8AC31A7F8A231B7F8AC21B7F8A031C9
:103608009A4203D9B7F8AC31A7F8A031B7F8AA3174
:1036180003F10103A7F8AA31B7F8AA2107F10203B9
:103628001B889A42B4D340F24823C2F200031B8895
:103638009BB21846FFF792F8B7F8A231A7F8AC3159
:1036480009E24FF00003A7F8AE3107F102031B8827
:1036580003F1FF33A7F8A8314FF00003A7F8AA3108
:10366800F6E0B7F8AA314FEA830307F104021268BB
:10367800D3181B881BB21846FCF712FF04460D46E8
:10368800B7F8AC311846FCF7FBFE02460B464FF084
:1036980001010E4620462946FCF7C8FF0346002BC9
:1036A80002D14FF000031E46F3B2002B25D0B7F825
:1036B800A8314FEA830307F104021268D3181B8864
:1036C8001BB21846FCF7ECFE04460D46B7F8AC31C1
:1036D8001846FCF7D5FE02460B464FF001010E4690
:1036E80020462946FCF7B6FF0346002B02D14FF0CF
:1036F80000031E46F3B2002B4BD1B7F8A8314FEAAE
:10370800830307F104021268D3181B881BB21846FA
:10371800FCF7C6FE04460D46B7F8AC311846FCF770
:10372800AFFE02460B464FF001010E4620462946E1
:10373800FCF77CFF0346002B02D14FF000031E4626
:10374800F3B2002B7AD0B7F8AA314FEA830307F116
:1037580004021268D3181B881BB21846FCF7A0FE97
:1037680004460D46B7F8AC311846FCF789FE024608
:103778000B464FF001010E4620462946FCF76AFF2A
:103788000346002B02D14FF000031E46F3B2002B74
:1037980054D0B7F8AE21B7F8AA314FEA830307F13E
:1037A80004010968CB185B8899B2B7F8AC01B7F87F
:1037B800AA314FEA830307F104042468E3181B883D
:1037C8001BB2C31AB7F8A8014FEA800007F1040436
:1037D80024682018408804B2B7F8AA014FEA80008C
:1037E80007F104052D682818408800B2201A00FB4C
:1037F80003F0B7F8A8314FEA830307F104042468FB
:10380800E3181B881CB2B7F8AA314FEA830307F103
:1038180004052D68EB181B881BB2E31A90FBF3F321
:103828009BB2CB189BB2194607F10C0323F8121070
:10383800B7F8AE3103F10103A7F8AE31B7F8AA31F2
:10384800A7F8A831B7F8AA3103F10103A7F8AA31FC
:10385800B7F8AA2107F102031B889A42FFF401AFC7
:103868004FF00003A7F8AA3141E0B7F8AA2107F101
:103878000C0333F81220B7F8AA3103F1010107F15C
:103888000C0333F811309A422BD9B7F8AA2107F163
:103898000C0333F81230A7F89C31B7F8AA21B7F80F
:1038A800AA3103F1010107F10C0333F8113019466D
:1038B80007F10C0323F81210B7F8AA3103F101023B
:1038C800B7F89C1107F10C0323F81210B7F8AA31C6
:1038D800002B0CD0B7F8AA3103F1FF33A7F8AA31AF
:1038E80005E0B7F8AA3103F10103A7F8AA31B7F840
:1038F800AA21B7F8AE3103F1FF339A42B5DB4FF096
:103908000003A7F8AA3197E0B7F8AA2107F10C033A
:1039180033F81230B7F8A4219A4240F29580B7F8EC
:10392800AA3103F1010207F10C0333F81230B7F89A
:10393800A6219A427AD2B7F8AA2107F10C0333F8E4
:103948001230B7F8A6219A4207D9B7F8AA21B7F8D2
:10395800A61107F10C0323F81210B7F8AA3103F1E6
:10396800010207F10C0333F81230B7F8A4219A4288
:1039780009D2B7F8AA3103F10102B7F8A41107F187
:103988000C0323F8121040F24823C2F200031B88EC
:103998009BB21846FEF7E2FEB7F8AA3103F101021E
:1039A80007F10C0333F81220B7F8AA3103F101012B
:1039B80007F10C0333F81110B7F8AA0107F10C034B
:1039C80033F81030CB1A9BB2B7F8AC110846114641
:1039D8001A464FF00003FFF7CFF840F28423C2F2F3
:1039E80000031B889BB21846FEF7B8FEB7F8AC2157
:1039F800B7F8AA3103F1010107F10C0333F81130CC
:103A08009BB212B21BB210461946FEF73FFFB7F839
:103A1800AC21B7F8AA1107F10C0333F811309BB2A7
:103A280012B21BB210461946FEF730FFB7F8AA319A
:103A380003F10203A7F8AA31B7F8AA21B7F8AE3103
:103A48009A42FFF461AF00E000BFB7F8AC3103F170
:103A58000103A7F8AC31B7F8AC21B7F8A0319A4206
:103A6800FFF4EFAD40F28423C2F200031B889BB23F
:103A78001846FEF773FE07F5DA77BD46F0BD00BFBE
:103A880080B485B000AF78604FF00003FB607B68BE
:103A980042F2107202FB03F3FB6003E0FB6803F1E0
:103AA800FF33FB60FB68002BF8D107F11407BD4614
:103AB80080BC704780B483B000AF78604FF46D432A
:103AC800CEF200037A6842F0BE6242F42022DA6045
:103AD80007F10C07BD4680BC704700BF80B485B0B5
:103AE80000AF78604FF00003FB734FF00003BB7327
:103AF8004FF00F037B737B68DB78002B45D04FF4C6
:103B08006D43CEF20003DB686FEA030303F4E0635E
:103B18004FEA1323FB73FB7BC3F10403BB737A7B6C
:103B2800FB7B42FA03F37B737B685B781A46BB7BAB
:103B380002FA03F3FB737B689A787B7B1340DAB253
:103B4800FB7B1343FB73FB7B4FEA0313FB734FF4BD
:103B58006143CEF200037A6812789B18FA7B83F8E7
:103B680000234FF46143CEF200037A6812784FEADB
:103B78005212D2B27968097801F01F014FF00100A2
:103B880000FA01F143F8221014E04FF46143CEF239
:103B980000037A6812784FEA5212D2B2796809782B
:103BA80001F01F014FF0010000FA01F102F12002BB
:103BB80043F8221007F11407BD4680BC704700BFC8
:103BC80080B483B000AF786039604FF46D43CEF2B3
:103BD80000033A6822F0604222F07F0279680A43C3
:103BE8009A6007F10C07BD4680BC704780B483B06B
:103BF80000AF02460B46FA71BB71BB79002B0CD0A3
:103C08004FF46D43CEF200034FF46D42CEF2000242
:103C18001169FA790A431A610DE04FF46D43CEF247
:103C280000034FF46D42CEF200021169FA796FEA8F
:103C380002020A401A6107F10C07BD4680BC7047B2
:103C480080B483B000AF78607B68042B0CD14EF24F
:103C58001003CEF200034EF21002CEF200021268F8
:103C680042F004021A600BE04EF21003CEF2000399
:103C78004EF21002CEF20002126822F004021A601C
:103C880007F10C07BD4680BC704700BF80B500AF88
:103C98004FF480704FF0010109F068F84FF480701C
:103CA8004FF0000109F062F880BD00BF80B485B014
:103CB80000AF786039604FF00003FB604FF00003FD
:103CC800FB727B685B68FB60FB6823F0407323F43E
:103CD8008073FB603B681B794FEA03223B681B68D3
:103CE8001343FA681343FB607B68FA685A607B6881
:103CF8009B68FB60FA684FF2FD73CCF2FF03134038
:103D0800FB603B681A693B68DB681A433B689B6841
:103D18001A433B685B794FEA43031343FA6813433A
:103D2800FB607B68FA689A607B68DB6AFB60FB680B
:103D380023F47003FB603B681B7D03F1FF33DAB2A9
:103D4800FB7A1343FB72FB7A4FEA0353FA68134377
:103D5800FB607B68FA68DA6207F11407BD4680BC2D
:103D6800704700BF80B483B000AF78607B684FF0C5
:103D780000021A607B684FF000021A717B684FF0EE
:103D880000025A717B684FF000029A607B684FF01E
:103D98000002DA607B684FF000021A617B684FF01E
:103DA80001021A7507F10C07BD4680BC704700BFB9
:103DB80080B485B000AF78604FF00003FB604FF42B
:103DC8000C53C4F201035B68FB60FA6843F2E0033A
:103DD800CFF6FC731340FB607B681A687B685B68EE
:103DE8001A437B689B681A437B68DB681343FA684D
:103DF8001343FB604FF40C53C4F20103FA685A6092
:103E080007F11407BD4680BC704700BF80B483B07B
:103E180000AF78607B684FF000021A607B684FF053
:103E280000025A607B684FF000029A607B684FF08E
:103E38000002DA6007F10C07BD4680BC704700BF7E
:103E480080B483B000AF78600B46FB70FB78002B22
:103E580006D07B689B6843F001027B689A6005E0A6
:103E68007B689B6823F001027B689A6007F10C0766
:103E7800BD4680BC704700BF80B485B000AF786095
:103E880039604FF00003FB607B685B68FB60FB6890
:103E980023F4400323F40073FB60FA683B68134380
:103EA800FB607B68FA685A6007F11407BD4680BC5E
:103EB800704700BF80B483B000AF786013460A46ED
:103EC8007A803B807A887B685A623A887B689A62F3
:103ED80007F10C07BD4680BC704700BF80B485B0B1
:103EE80000AF78600B46FB704FF00003FB607B6807
:103EF8005B68FB60FB6823F01F03FB60FB78FA68D4
:103F08001343FB607B68FA685A6007F11407BD46E3
:103F180080BC704780B483B000AF0346FB71FB7967
:103F2800002B0CD04FF40C53C4F201034FF40C5285
:103F3800C4F20102526842F400025A600BE04FF4E6
:103F48000C53C4F201034FF40C52C4F2010252683C
:103F580022F400025A6007F10C07BD4680BC704786
:103F680080B483B000AF0346FB71FB79002B0CD003
:103F78004FF40C53C4F201034FF40C52C4F2010283
:103F8800526842F480025A600BE04FF40C53C4F2BA
:103F980001034FF40C52C4F20102526822F4800269
:103FA8005A6007F10C07BD4680BC704780B485B0E5
:103FB80000AF7860F970BA707B704FF00003FB6057
:103FC8004FF00003BB60FB78092B27D97B68DB68BF
:103FD800FB60FA7813464FEA43039B18A3F11E03CC
:103FE8004FF0070202FA03F3BB60BB686FEA0303F2
:103FF800FA681340FB607978FA7813464FEA43036E
:104008009B18A3F11E0301FA03F3BB60FA68BB68AF
:104018001343FB607B68FA68DA6022E07B681B69FF
:10402800FB60FA7813464FEA43039B184FF00702E8
:1040380002FA03F3BB60BB686FEA0303FA68134034
:10404800FB607978FA7813464FEA43039B1801FA24
:1040580003F3BB60FA68BB681343FB607B68FA68CC
:104068001A61BB78062B27D87B685B6BFB60BB7833
:1040780003F1FF3213464FEA83039B184FF01F02E8
:1040880002FA03F3BB60BB686FEA0303FA681340E4
:10409800FB60F978BB7803F1FF3213464FEA8303DC
:1040A8009B1801FA03F3BB60FA68BB681343FB6013
:1040B8007B68FA685A6351E0BB780C2B27D87B6879
:1040C8001B6BFB60BA7813464FEA83039B18A3F176
:1040D80023034FF01F0202FA03F3BB60BB686FEAC9
:1040E8000303FA681340FB60F978BA7813464FEA7D
:1040F80083039B18A3F1230301FA03F3BB60FA6857
:10410800BB681343FB607B68FA681A6326E07B6828
:10411800DB6AFB60BA7813464FEA83039B18A3F166
:1041280041034FF01F0202FA03F3BB60BB686FEA5A
:104138000303FA681340FB60F978BA7813464FEA2C
:1041480083039B18A3F1410301FA03F3BB60FA68E8
:10415800BB681343FB607B68FA68DA6207F11407EF
:10416800BD4680BC704700BF80B483B000AF7860A4
:104178007B689B6843F080427B689A6007F10C0774
:10418800BD4680BC704700BF80B485B000AF786082
:104198004FF00003FB737B689B6803F48003002BDC
:1041A80003D04FF00103FB7302E04FF00003FB73F1
:1041B800FB7B184607F11407BD4680BC704700BF5B
:1041C80080B483B000AF78600B46FB70FB78002B9F
:1041D80006D07B689B6843F480627B689A6005E040
:1041E8007B689B6823F480627B689A6007F10C0700
:1041F800BD4680BC704700BF80B483B000AF786014
:104208000B46FB70FB78002B06D07B689B6843F05D
:1042180002027B689A6005E07B689B6823F00202D3
:104228007B689A6007F10C07BD4680BC704700BFE9
:1042380080B485B000AF78600B46FB704FF0000388
:10424800FB604FF00003BB607B685B68FB60FB684A
:1042580023F46043FB60FB7803F1FF33BB60BB686A
:104268004FEA4333FA681343FB607B68FA685A6085
:1042780007F11407BD4680BC704700BF80B483B007
:1042880000AF78600B46FB70FB78002B06D07B688C
:104298005B6843F400627B685A6005E07B685B6892
:1042A80023F400627B685A6007F10C07BD4680BCA6
:1042B800704700BF80B483B000AF78607B68DB6C68
:1042C8009BB2184607F10C07BD4680BC704700BF7B
:1042D80080B400AF42F20833C4F201031B681846E9
:1042E800BD4680BC704700BF80B483B000AF786023
:1042F8000B46FB70FB78002B06D07B689B6843F469
:1043080080727B689A6005E07B689B6823F4807202
:104318007B689A6007F10C07BD4680BC704700BFF8
:1043280080B483B000AF78600B46FB70FB78002B3D
:1043380006D07B689B6843F400727B689A6005E04E
:104348007B689B6823F400727B689A6007F10C070E
:10435800BD4680BC704700BF80B483B000AF034641
:10436800FB71FB79002B0CD04FF40C53C4F2010302
:104378004FF40C52C4F20102526842F400525A60DF
:104388000BE04FF40C53C4F201034FF40C52C4F287
:104398000102526822F400525A6007F10C07BD4628
:1043A80080BC704780B487B000AF7860F970BA708D
:1043B8007B704FF000037B614FF000033B614FF0CF
:1043C8000003FB60FB78092B27D97B68DB687B61DE
:1043D800FA7813464FEA43039B18A3F11E034FF0E4
:1043E800070202FA03F33B613B696FEA03037A6948
:1043F80013407B617978FA7813464FEA43039B1898
:10440800A3F11E0301FA03F33B617A693B69134385
:104418007B617B687A69DA6022E07B681B697B6173
:10442800FA7813464FEA43039B184FF0070202FA43
:1044380003F33B613B696FEA03037A6913407B61CD
:104448007978FA7813464FEA43039B1801FA03F385
:104458003B617A693B6913437B617B687A691A61BE
:104468007B689B6B7B617B6903F440134FEA1353B2
:10447800FB60FB68DBB26FEA0303DAB2BB78D318E0
:10448800DBB203F10303DBB21A4613464FEA830398
:104498009B184FF01F0202FA03F33B613B696FEA76
:1044A80003037A6913407B61F978FB68DBB26FEA32
:1044B8000303DAB2BB78D318DBB203F10303DBB230
:1044C8001A4613464FEA83039B1801FA03F33B612C
:1044D8007A693B6913437B617B687A699A6307F160
:1044E8001C07BD4680BC704780B485B000AF7860BB
:1044F8000B46FB704FF00003FB604FF00003BB60FE
:104508007B689B6BFB60FB6823F44013FB60FB78C4
:1045180003F1FF33BB60BB684FEA0353FA681343E8
:10452800FB607B68FA689A6307F11407BD4680BC94
:10453800704700BF80B485B000AF786013460A4664
:10454800FA703B804FF00003FB607B68FB60FA78F1
:10455800FB68D318FB60FB683A881A6007F11407F8
:10456800BD4680BC704700BF80B485B000AF78609E
:1045780039604FF00003FB607B689B68FB60FB6859
:1045880023F47023FB60FA683B681343FB607B6885
:10459800FA689A6007F11407BD4680BC704700BFEF
:1045A80080B485B000AF786039604FF00003FB60DD
:1045B8007B689B68FB60FB6823F44013FB60FA6828
:1045C8003B681343FB607B68FA689A6007F114073D
:1045D800BD4680BC704700BF80B483B000AF786030
:1045E8007B689B6843F480027B689A6007F10C073C
:1045F800BD4680BC704700BF80B485B000AF78600E
:104608004FF00003FB737B689B6803F48003002B67
:1046180003D04FF00103FB7302E04FF00003FB737C
:10462800FB7B184607F11407BD4680BC704700BFE6
:1046380080B483B000AF78600B46FB70FB78002B2A
:1046480006D07B685B6843F480627B685A6005E04B
:104658007B685B6823F480627B685A6007F10C070B
:10466800BD4680BC704700BF80B483B000AF78609F
:104678000B46FB70FB78002B06D07B685B6843F425
:1046880080527B685A6005E07B685B6823F480523F
:104698007B685A6007F10C07BD4680BC704700BFB5
:1046A80080B485B000AF78600B46FB704FF0000314
:1046B800FB607B68FB60FA78FB68D31803F128037A
:1046C800FB60FB681B689BB2184607F11407BD46E0
:1046D80080BC704780B485B000AF786013460A4646
:1046E8007A807B704FF00003FB607B88DBB2FB6055
:1046F800FB684FF0010202FA03F3FB607B78002BA2
:1047080006D07B685A68FB681A437B685A6007E0E2
:104718007B685A68FB686FEA03031A407B685A6033
:1047280007F11407BD4680BC704700BF80B485B050
:1047380000AF78600B46FB704FF00003FB737B689B
:104748001A68FB781340002B03D04FF00103FB736A
:1047580002E04FF00003FB73FB7B184607F11407D8
:10476800BD4680BC704700BF80B483B000AF78609E
:104778000B46FB70FB786FEA03027B681A6007F14F
:104788000C07BD4680BC704780B487B000AF786026
:104798000B467B804FF00003FB754FF000033B6135
:1047A8004FF00003FB607B884FEA13239BB23B6109
:1047B8007B685A687B88DBB24FF0010101FA03F38A
:1047C8001340FB607B681A683B691340002B06D0D6
:1047D800FB68002B03D04FF00103FB7502E04FF09C
:1047E8000003FB75FB7D184607F11C07BD4680BC1E
:1047F800704700BF80B485B000AF78600B467B80FF
:104808004FF00003FB737B884FEA13239BB2FB73C3
:10481800FB7B6FEA03027B681A6007F11407BD4649
:1048280080BC704780B582B000AF78607A684FF47A
:10483800C843C4F200039A420CD14FF000704FF005
:10484800010108F069FA4FF000704FF0000108F01C
:1048580063FA0BE04FF080604FF0010108F05CFA5A
:104868004FF080604FF0000108F056FA07F1080792
:10487800BD4680BD80B485B000AF786039604FF028
:104888000003FB734FF00003BB607B681B6823F0D9
:1048980002027B681A607B681B6843F001027B6830
:1048A8001A6003E0BB6803F10103BB607B685B68C7
:1048B80003F00103002B04D1BA684FF6FF739A4244
:1048C800F0D17B685B6803F00103002B03D14FF044
:1048D8000003FB73A7E03B689B79012B06D17B683B
:1048E8001B6843F080027B681A6005E07B681B68E0
:1048F80023F080027B681A603B68DB79012B06D1C4
:104908007B681B6843F040027B681A6005E07B689F
:104918001B6823F040027B681A603B681B7A012BF6
:1049280006D17B681B6843F020027B681A6005E0AB
:104938007B681B6823F020027B681A603B685B7AFF
:10494800012B06D17B681B6843F010027B681A6054
:1049580005E07B681B6823F010027B681A603B68DF
:104968009B7A012B06D17B681B6843F008027B68A1
:104978001A6005E07B681B6823F008027B681A60F0
:104988003B68DB7A012B06D17B681B6843F0040285
:104998007B681A6005E07B681B6823F004027B686B
:1049A8001A603B689B784FEA83723B68DB784FEA72
:1049B80003631A433B681B794FEA03431A433B6876
:1049C8005B794FEA03531A433B681B8803F1FF33B3
:1049D8001A437B68DA617B681B6823F001027B68F5
:1049E8001A604FF00003BB6003E0BB6803F10103EA
:1049F800BB607B685B6803F00103DBB2002B04D06B
:104A0800BA684FF6FF739A42EFD17B685B6803F090
:104A18000103DBB2002B03D04FF00003FB7302E06D
:104A28004FF00103FB73FB7B184607F11407BD46E3
:104A380080BC704780B485B000AF78604FF0000349
:104A4800FB607B689B7A4FF0010202FA03F3FB607C
:104A58004FF4C843C4F200034FF4C842C4F2000242
:104A6800D2F8002242F00102C3F800224FF4C843F2
:104A7800C4F200034FF4C842C4F20002D2F81C1278
:104A8800FA686FEA02020A40C3F81C227B681B7BA3
:104A9800002B33D14FF4C843C4F200034FF4C8428B
:104AA800C4F20002D2F80C12FA686FEA02020A4055
:104AB800C3F80C224FF4C843C4F200037A68927A10
:104AC8007968C9884FEA014079684988014302F149
:104AD800480243F832104FF4C842C4F200027B681F
:104AE8009B7A796889884FEA014079680988014387
:104AF80003F148034FEAC303D31859607B681B7B53
:104B0800012B31D14FF4C843C4F200034FF4C8421B
:104B1800C4F20002D2F80C12FA680A43C3F80C2255
:104B28004FF4C843C4F200037A68927A7968098816
:104B38004FEA014079684988014302F1480243F885
:104B480032104FF4C842C4F200027B689B7A79683D
:104B580089884FEA01407968C988014303F148030D
:104B68004FEAC303D31859607B68DB7A002B10D156
:104B78004FF4C843C4F200034FF4C842C4F2000221
:104B8800D2F80412FA686FEA02020A40C3F8042253
:104B98000DE04FF4C843C4F200034FF4C842C4F216
:104BA8000002D2F80412FA680A43C3F804227B68A8
:104BB8001B89002B0FD14FF4C843C4F200034FF4F4
:104BC800C842C4F20002D2F81412FA686FEA02026C
:104BD8000A40C3F814227B681B89012B0DD14FF4BE
:104BE800C843C4F200034FF4C842C4F20002D2F82A
:104BF8001412FA680A43C3F814227B685B7B012B02
:104C08000DD14FF4C843C4F200034FF4C842C4F2B4
:104C18000002D2F81C12FA680A43C3F81C224FF4A7
:104C2800C843C4F200034FF4C842C4F20002D2F8E9
:104C3800002222F00102C3F8002207F11407BD4642
:104C480080BC704780B483B000AF78607B684FF059
:104C580000029A717B684FF00002DA717B684FF0AE
:104C680000021A727B684FF000025A727B684FF09C
:104C780000029A727B684FF00002DA727B684FF08C
:104C880000029A707B684FF00002DA707B684FF080
:104C980003021A717B684FF002025A717B684FF069
:104CA80001021A8007F10C07BD4680BC704700BF9F
:104CB80080B483B000AF0346FB714FF4C843C4F21D
:104CC80000034FF4C842C4F20002D2F8002242F0B6
:104CD8000102C3F800224FF4C843C4F200034FF4A2
:104CE800C842C4F20002D2F8002222F47C5222F018
:104CF8000E02C3F800224FF4C843C4F200034FF475
:104D0800C842C4F20002D2F80012FA794FEA02222D
:104D18000A43C3F800224FF4C843C4F200034FF417
:104D2800C842C4F20002D2F8002222F00102C3F8FD
:104D3800002207F10C07BD4680BC704780B483B0E1
:104D480000AF78600B46FB70FB78002B06D07B68C1
:104D58001B6843F480327B681A6005E07B681B6837
:104D680023F480327B681A6007F10C07BD4680BCCB
:104D7800704700BF80B483B000AF78600B46FB700B
:104D8800FB78002B1ED07B681B6843F080027B6891
:104D98001A607B68D3F8843143F480727B68C3F867
:104DA80084217B68D3F8943143F480727B68C3F81C
:104DB80094217B68D3F8A43143F480727B68C3F8EC
:104DC800A4211DE07B681B6823F080027B681A60C1
:104DD8007B68D3F8843123F480727B68C3F884211C
:104DE8007B68D3F8943123F480727B68C3F89421EC
:104DF8007B68D3F8A43123F480727B68C3F8A421BC
:104E080007F10C07BD4680BC704700BF80B485B071
:104E180000AF786039604FF00003FB737B689B68D4
:104E280003F08063002B03D04FF00003FB7316E000
:104E38007B689B6803F00063002B03D04FF00103ED
:104E4800FB730CE07B689B6803F08053002B03D056
:104E58004FF00203FB7302E04FF00403FB73FB7B8C
:104E6800042B00F0BA80FB7BFA7B796802F1180208
:104E78004FEA02128A18126802F00102796803F1F7
:104E880018034FEA0313CB181A603B681B7A002BF0
:104E980018D1FB7BFA7B796802F118024FEA0212FB
:104EA8008A1811683A6812684FEA42503A68527A8A
:104EB80002430A43796803F118034FEA0313CB1836
:104EC8001A601AE0FB7BFA7B796802F118024FEA54
:104ED80002128A1811683A6852684FEAC2003A68A2
:104EE800127A10433A68527A02430A43796803F106
:104EF80018034FEA0313CB181A603B689B7A03F038
:104F08000F03DAB23B689A72FB7BFA7B796802F18D
:104F180018024FEA02128A18526822F00F027968C2
:104F280003F118034FEA0313CB185A60FB7BFA7B93
:104F3800796802F118024FEA02128A1851683A6831
:104F4800927A0A43796803F118034FEA0313CB18DE
:104F58005A60FB7B3A68927B4FEA02613A68527B5F
:104F68004FEA024211433A68127B4FEA0222114388
:104F78003A68D27A0A4379684FEA0313CB1803F5E3
:104F8800C4731A60FB7B3A68927C4FEA02613A6804
:104F9800527C4FEA024211433A68127C4FEA0222DD
:104FA80011433A68D27B0A4379684FEA0313CB1856
:104FB80003F5C4735A60FB7BFA7B796802F1180227
:104FC8004FEA02128A18126842F00102796803F166
:104FD80018034FEA0313CB181A60FB7B184607F136
:104FE8001407BD4680BC704780B485B000AF7860B8
:104FF8000B46FB704FF00003FB60FB78012B0CD0D5
:10500800022B13D0002B1AD17B689A684FF0030348
:10501800C0F200431340FB6015E07B689A684FF4C8
:105028004073C0F600031340FB600CE07B689A688D
:105038004FF00003C1F203031340FB6003E04FF09D
:105048000003FB6000BFFB684FF48072C0F60002EB
:1050580093422FD04FF48072C0F6000293420ED8CC
:105068004FF00102C0F2004293421FD04FF00302FA
:10507800C0F20042934225D0002B13D02EE04FF00F
:105088000002C1F20102934218D04FF00002C1F2AF
:10509800030293421ED04FF44072C0F600029342BE
:1050A80014D01BE04FF00203FB601BE04FF000033D
:1050B800FB6017E04FF00003FB6013E04FF00003C4
:1050C800FB600FE04FF00103FB600BE04FF00103C2
:1050D800FB6007E04FF00103FB6003E04FF00003C3
:1050E800FB6000BFFB68DBB2184607F11407BD463A
:1050F80080BC704780B483B000AF78600B46FB700B
:10510800FB78012B0AD0022B0FD0002B14D17B681F
:105118009B6843F080027B689A600EE07B689B681E
:1051280043F400427B689A6007E07B689B6843F41D
:1051380000027B689A6000E000BF07F10C07BD46DB
:1051480080BC704780B485B000AFF8600B467A60C9
:10515800FB72FB7AFA6803F11B034FEA0313D318B7
:105168001B68DBB203F00403DAB27B681A727B684F
:105178001B7A002B0CD1FB7AFA6803F11B034FEA68
:105188000313D3181B684FEA53527B681A600BE06D
:10519800FB7AFA6803F11B034FEA0313D3181B6861
:1051A8004FEAD3027B685A60FB7AFA6803F11B0363
:1051B8004FEA0313D3181B68DBB203F00203DAB219
:1051C8007B685A72FB7AFA6803F11B034FEA0313F0
:1051D800D3185B68DBB203F00F03DAB27B689A720C
:1051E800FB7AFA6803F11B034FEA0313D3185B68D1
:1051F8004FEA1323DAB27B68DA74FB7AFA684FEA6B
:105208000313D31803F5DC731B68DAB27B68DA7210
:10521800FB7AFA684FEA0313D31803F5DC731B68AB
:105228004FEA1323DAB27B681A73FB7AFA684FEAFB
:105238000313D31803F5DC731B684FEA1343DAB280
:105248007B685A73FB7AFA684FEA0313D31803F59D
:10525800DC731B684FEA1363DAB27B689A73FB7AD4
:10526800FA684FEA0313D31803F5DC735B68DAB204
:105278007B68DA73FB7AFA684FEA0313D31803F5ED
:10528800DC735B684FEA1323DAB27B681A74FB7A23
:10529800FA684FEA0313D31803F5DC735B684FEA27
:1052A8001343DAB27B685A74FB7AFA684FEA03133D
:1052B800D31803F5DC735B684FEA1363DAB27B68D3
:1052C8009A74FB7A002B06D1FB68DB6843F0200256
:1052D800FB68DA6005E0FB681B6943F02002FB68A5
:1052E8001A6107F11407BD4680BC704780B483B0CB
:1052F80000AF78600B46FB70FB78002B06D17B680B
:10530800DB6843F020027B68DA6005E07B681B6994
:1053180043F020027B681A6107F10C07BD4680BC88
:10532800704700BF80B485B000AF78600B46FB7053
:105338004FF00003FB73FB78002B06D17B68DB681A
:10534800DBB203F00303FB730CE0FB78012B06D1FF
:105358007B681B69DBB203F00303FB7302E04FF0C9
:105368000003FB73FB7B184607F11407BD4680BC9E
:10537800704700BF80B485B000AF78600B46FB7003
:105388004FF00003FB734FF6FF73BB60FB78002BF5
:1053980023D17B681B6823F0030343F001027B6879
:1053A8001A6003E0BB6803F1FF33BB607B685B688E
:1053B80003F00303012B02D0BB68002BF2D17B68FA
:1053C8005B6803F00303012B03D04FF00003FB736A
:1053D80052E04FF00103FB734EE0FB78012B21D123
:1053E8007B681B6823F003027B681A6003E0BB68D4
:1053F80003F1FF33BB607B685B6803F00303002B9A
:1054080002D0BB68002BF2D17B685B6803F0030312
:10541800002B03D04FF00003FB732DE04FF0010386
:10542800FB7329E0FB78022B23D17B681B6823F0F0
:10543800030343F002027B681A6003E0BB6803F1D0
:10544800FF33BB607B685B6803F00303022B02D069
:10545800BB68002BF2D17B685B6803F00303022B67
:1054680003D04FF00003FB7306E04FF00103FB731A
:1054780002E04FF00003FB73FB7B184607F11407AB
:10548800BD4680BC704700BF80B485B000AF78606F
:105498004FF00003FB737B681B6823F0030343F0A2
:1054A80002027B681A607B685B6803F00303022BC7
:1054B80002D14FF00103FB73FB7B184607F1140779
:1054C800BD4680BC704700BF80B485B000AF78602F
:1054D8004FF6FF73FB604FF00003FB727B681B689D
:1054E80023F002027B681A6003E0FB6803F1FF33D4
:1054F800FB607B685B6803F00203002B02D0FB684B
:10550800002BF2D17B685B6803F00203002B02D109
:105518004FF00103FB72FB7A184607F11407BD46EA
:1055280080BC704780B485B000AF78604FF000034E
:10553800FB737B689B69DBB203F07003FB73FB7B37
:10554800184607F11407BD4680BC704780B485B083
:1055580000AF78604FF00003FB737B689B694FEAEC
:105568001363FB73FB7B184607F11407BD4680BC29
:10557800704700BF80B485B000AF78604FF000037B
:10558800FB737B689B6903F47F034FEA1343FB7348
:10559800FB7B184607F11407BD4680BC704700BF67
:1055A80080B485B000AFF860B9601346FB71FB7931
:1055B800002B06D0FB685A69BB681A43FB685A611E
:1055C80007E0FB685A69BB686FEA03031A40FB6887
:1055D8005A6107F11407BD4680BC704780B485B096
:1055E80000AF786039604FF00003FB733B6803F449
:1055F8007003002B11D07B689A693B68134023F035
:105608007F4323F47003002B03D04FF00103FB7397
:1056180059E04FF00003FB7355E03B6803F08073DB
:10562800002B11D07B685A683B68134023F07F43F6
:1056380023F47003002B03D04FF00103FB7342E007
:105648004FF00003FB733EE03B6803F00063002B60
:1056580011D07B689A683B68134023F07F4323F49A
:105668007003002B03D04FF00103FB732BE04FF0C6
:105678000003FB7327E03B6803F00073002B11D095
:105688007B68DA683B68134023F07F4323F4700398
:10569800002B03D04FF00103FB7314E04FF000031D
:1056A800FB7310E07B681A693B68134023F07F4363
:1056B80023F47003002B03D04FF00103FB7302E0C7
:1056C8004FF00003FB73FB7B184607F11407BD4638
:1056D80080BC704780B485B000AF786039604FF007
:1056E8000003FB603A684FF07003C3F2F0039A427C
:1056F80004D17B684FF000029A6123E03B6823F0F5
:105708007F4323F47003FB603B6803F00073002BB6
:1057180003D07B68FA68DA6014E03B6803F08063C2
:10572800002B03D07B68FA681A610BE03B6803F032
:105738000063002B03D07B68FA689A6002E07B68FC
:10574800FA685A6007F11407BD4680BC704700BF6D
:1057580080B584B000AF786039604FF00003FB7308
:105768007B685A693B681340002B00F0C4803B6893
:10577800402B6BD0402B0FD8042B3FD0042B04D8E0
:10578800012B25D0022B2FD0B1E0102B4AD0202B93
:1057980052D0082B3CD0AAE0B3F5006F00F09280FD
:1057A800B3F5006F09D8B3F5007F77D0B3F5806FF4
:1057B8007ED0B3F5807F67D099E0B3F5803F4FD0B6
:1057C800B3F5003F56D0B3F5004F00F085808EE06A
:1057D8007B689B68184640F20111C0F2010100F095
:1057E80011F90346FB7389E07B68DB6818464FF0C4
:1057F800030100F007F90346FB737FE07B68DB6871
:1058080018464FF0080100F0FDF80346FB7375E0F9
:105818007B68DB6818464FF0100100F0F3F8034688
:10582800FB736BE07B681B6918464FF0030100F0BF
:10583800E9F80346FB7361E07B681B6918464FF083
:10584800080100F0DFF80346FB7357E07B681B692B
:1058580018464FF0100100F0D5F80346FB734DE0F1
:105868007B685B6818464FF0080100F0CBF80346E8
:10587800FB7343E07B685B6818464FF0100100F04B
:10588800C1F80346FB7339E07B689B6918464FF003
:10589800010100F0B7F80346FB732FE07B689B69B2
:1058A80018464FF0020100F0ADF80346FB7325E0FF
:1058B8007B689B6918464FF0040100F0A3F8034683
:1058C800FB731BE07B689B6918464FF0700100F082
:1058D80099F80346FB7311E07B685B6818464FF044
:1058E800040100F08FF80346FB7300BF06E04FF099
:1058F8000003FB7302E04FF00003FB73FB7B1846C9
:1059080007F11007BD4680BD80B483B000AF786052
:1059180039603B68B3F5807F4CD0B3F5807F0DD8F4
:10592800082B2ED0082B04D8012B1ED0042B23D0F3
:1059380061E0202B2AD0402B2DD05CE0B3F5006F1E
:1059480047D0B3F5006F06D8B3F5007F37D0B3F56D
:10595800806F39D04FE0B3F5803F21D0B3F5003FD9
:1059680023D0B3F5004F3DD045E07A6840F20113EB
:10597800C0F2010393603FE07B684FF00802DA60F1
:105988003AE07B684FF01002DA6035E07B684FF050
:1059980008021A6130E07B684FF010021A612BE0B0
:1059A8007B684FF008025A6026E07B684FF01002CF
:1059B8005A6021E07B684FF004025A601CE07B6863
:1059C8004FF004025A6017E07B684FF004025A60F7
:1059D80012E07B684FF000029A617B684FF0040286
:1059E8005A6009E07B684FF000029A617B684FF0CB
:1059F80004025A6000E000BF07F10C07BD4680BCF6
:105A0800704700BF80B485B000AF786039604FF050
:105A18000003FB737A683B681340002B03D04FF0F8
:105A28000103FB7302E04FF00003FB73FB7B184696
:105A380007F11407BD4680BC704700BF80B400AFB3
:105A48004FF44053C4F202034FF001029A60BD467E
:105A580080BC704780B483B000AF78604FF4405387
:105A6800C4F202037A681A604FF44053C4F2020386
:105A78001B68184607F10C07BD4680BC704700BF7D
:105A880080B485B000AF786039604FF00003FB60E8
:105A98004FF00003FB600EE04FF44053C4F20203E2
:105AA800FA684FEA820279688A1812681A60FB68F5
:105AB80003F10103FB60FA683B689A42ECD34FF4A8
:105AC8004053C4F202031B68184607F11407BD4689
