:020000040800F2
:10000000000002204102000879030008850300086F
:100010008D030008950300089D0300080000000000
:10002000000000000000000000000000A503000820
:10003000B103000800000000BD030008C903000868
:10004000A1020008A1020008A1020008A102000804
:10005000A1020008A1020008A1020008A1020008F4
:10006000A1020008A1020008A1020008A1020008E4
:10007000A1020008A1020008A1020008A1020008D4
:10008000A1020008A1020008A1020008A1020008C4
:10009000A1020008A1020008A1020008A1020008B4
:1000A000A1020008A1020008A1020008A1020008A4
:1000B000A1020008A1020008A1020008A102000894
:1000C000A1020008A1020008A1020008A102000884
:1000D000A1020008A1020008A1020008A102000874
:1000E000A1020008A1020008A1020008A102000864
:1000F000A1020008A1020008A1020008A102000854
:10010000A1020008A1020008A1020008A102000843
:10011000A1020008A1020008A1020008A102000833
:10012000A1020008A1020008A1020008A102000823
:10013000A1020008A1020008A1020008A102000813
:10014000A1020008A1020008A1020008A102000803
:10015000A1020008A1020008A1020008A1020008F3
:10016000A1020008A1020008A1020008A1020008E3
:10017000A1020008A1020008A1020008A1020008D3
:08018000A1020008A102000821
:1001880010B540F20004C2F20004237863B940F2CB
:100198000000C0F2000028B140F2A470C0F60000D0
:1001A800AFF300800121217010BD00BF08B540F2F7
:1001B8000003C0F200034BB140F2A47040F2040106
:1001C800C0F60000C2F20001AFF3008040F2000068
:1001D800C2F20000016829B140F20003C0F2000336
:1001E80003B1984708BD00BF70B540F2BC7640F235
:1001F800BC75C0F60006C0F60005761BB61006D022
:10020800002455F8043B01349847A642F9D140F23E
:10021800C07640F2BC75C0F60006C0F60005761B35
:1002280000F0BCFAB61006D0002455F8043B01349F
:100238009847A642F9D170BD002100F004B8104BD0
:100248005B58435004310F480F4B42189A42FFF451
:10025800F6AF0E4A00F003B8002342F8043B0C4BFB
:100268009A42FFF4F9AF0B48016841F4700101604C
:1002780000F0ACF8FFF7B8FF00F05CF8704700003A
:10028800C407000800000020000000200000002033
:100298001C00002088ED00E0FFF7FEBF80B485B0A9
:1002A80000AF78600AE04FF00603FB7303E0FB7BC6
:1002B80003F1FF33FB73FB7B002BF8D17B68002B2A
:1002C8000CBF00220122D2B203F1FF337B60002A67
:1002D800E9D107F11407BD4680BC704780B582B0EC
:1002E80000AF4FF008004FF0010100F02DFA4FF475
:1002F80070433B604FF00003BB714FF001037B710B
:100308004FF00003FB714FF001033B714FF4406065
:10031800C4F202003B46194600F066F94FF440600B
:10032800C4F202004FF0000100F000FA07F10807DC
:10033800BD4680BD80B500AFFFF7D0FF45F23070F5
:10034800C0F20500FFF7AAFF4FF44063C4F20203AE
:100358004FF44062C4F20202526982F470425A6158
:1003680048F2A060C0F20100FFF798FFE6E700BF7F
:1003780080B400AFBD4680BC704700BF80B400AFFA
:10038800FEE700BF80B400AFFEE700BF80B400AF57
:10039800FEE700BF80B400AFFEE700BF80B400AF47
:1003A800BD4680BC704700BF80B400AFBD4680BC6E
:1003B800704700BF80B400AFBD4680BC704700BF27
:1003C80080B400AFBD4680BC704700BF80B500AFA9
:1003D8004FF46053C4F202034FF46052C4F20202B5
:1003E800126842F001021A604FF46053C4F202032B
:1003F8004FF000029A604FF46053C4F202034FF4C6
:100408006052C4F20202126822F0847222F480322E
:100418001A604FF46053C4F2020343F21002C2F2AE
:1004280000425A604FF46053C4F202034FF4605222
:10043800C4F20202126822F480221A604FF4605358
:10044800C4F202034FF00002DA6000F009F84FF43A
:100458006D43CEF200034FF000629A6080BD00BF8A
:1004680080B483B000AF4FF000037B604FF000030F
:100478003B604FF46053C4F202034FF46052C4F27D
:100488000202126842F480321A604FF46053C4F2D8
:1004980002031B6803F400333B607B6803F101032C
:1004A8007B603B68002B03D17B68B3F5A06FECD170
:1004B8004FF46053C4F202031B6803F40033002BAB
:1004C80003D04FF001033B6002E04FF000033B60B4
:1004D8003B68012B40F082804FF46053C4F2020362
:1004E8004FF46052C4F20202126C42F080521A6455
:1004F8004FF4E043C4F200034FF4E042C4F20002B8
:10050800126842F480421A604FF46053C4F2020346
:100518004FF46052C4F2020292689A604FF460533A
:10052800C4F202034FF46052C4F20202926842F429
:1005380000429A604FF46053C4F202034FF46052D1
:10054800C4F20202926842F4A0529A604FF46053D7
:10055800C4F2020345F21942C0F240725A604FF4E5
:100568006053C4F202034FF46052C4F202021268EC
:1005780042F080721A6000BF4FF46053C4F2020365
:100588001B6803F00073002BF6D04FF47053C4F2CD
:10059800020340F205621A604FF46053C4F202038A
:1005A8004FF46052C4F20202926822F003029A6089
:1005B8004FF46053C4F202034FF46052C4F20202D3
:1005C800926842F002029A6000BF4FF46053C4F28E
:1005D80002039B6803F00C03082BF6D107F10C0704
:1005E800BD4680BC704700BF80B487B000AF78605C
:1005F80039604FF000037B614FF000033B614FF01F
:100608000003FB604FF000037B6186E07B694FF0DD
:10061800010202FA03F33B613B681A683B69134025
:10062800FB60FA683B699A4273D17B681A687B69F8
:100638004FEA43034FF0030101FA03F36FEA0303A0
:100648001A407B681A607B681A683B681B791946F0
:100658007B694FEA430301FA03F31A437B681A6084
:100668003B681B79012B03D03B681B79022B34D1E3
:100678007B689A687B694FEA43034FF0030101FAEC
:1006880003F36FEA03031A407B689A607B689A68F1
:100698003B685B7919467B694FEA430301FA03F328
:1006A8001A437B689A607B685A687B699BB24FF0F3
:1006B800010101FA03F36FEA03031A407B685A60E9
:1006C8007B685A683B689B7919467B699BB201FA3B
:1006D80003F39BB21A437B685A607B68DA687B69CC
:1006E8009BB24FEA43034FF0030101FA03F36FEAA9
:1006F80003031A407B68DA607B68DA683B68DB7959
:1007080019467B694FEA430301FA03F31A437B68EE
:10071800DA607B6903F101037B617B690F2B7FF64C
:1007280075AF07F11C07BD4680BC704780B483B025
:1007380000AF78600B467B807A887B685A6107F146
:100748000C07BD4680BC704780B483B000AF7860AA
:100758000B46FB70FB78002B0CD04FF46053C4F2AF
:1007680002034FF46052C4F20202116B7A680A4322
:100778001A630DE04FF46053C4F202034FF4605261
:10078800C4F20202116B7A686FEA02020A401A6325
:1007980007F10C07BD4680BC704700BFF8B500BF25
:1007A800F8BC08BC9E467047F8B500BFF8BC08BC4A
:0407B8009E467047A2
:0407BC00B50100087B
:0407C00089010008A3
:0400000508000241AC
:00000001FF
